{
  "_format": "hh-sol-artifact-1",
  "contractName": "Donation",
  "sourceName": "contracts/Donation.sol",
  "abi": [
    {
      "inputs": [],
      "stateMutability": "nonpayable",
      "type": "constructor"
    },
    {
      "inputs": [],
      "name": "donate",
      "outputs": [],
      "stateMutability": "payable",
      "type": "function"
    },
    {
      "inputs": [],
      "name": "getDonations",
      "outputs": [
        {
          "components": [
            {
              "internalType": "uint256",
              "name": "id",
              "type": "uint256"
            },
            {
              "internalType": "address",
              "name": "donor",
              "type": "address"
            },
            {
              "internalType": "uint256",
              "name": "value",
              "type": "uint256"
            }
          ],
          "internalType": "struct Donation.Donor[]",
          "name": "",
          "type": "tuple[]"
        }
      ],
      "stateMutability": "view",
      "type": "function"
    },
    {
      "inputs": [],
      "name": "total",
      "outputs": [
        {
          "internalType": "uint256",
          "name": "",
          "type": "uint256"
        }
      ],
      "stateMutability": "view",
      "type": "function"
    },
    {
      "inputs": [],
      "name": "withdraw",
      "outputs": [],
      "stateMutability": "payable",
      "type": "function"
    }
  ],
  "bytecode": "0x608060405234801561001057600080fd5b50600080546001600160a01b03191633179055610457806100326000396000f3fe60806040526004361061003f5760003560e01c80632ddbd13a146100445780633ccfd60b1461006d578063e25f841614610077578063ed88c68e14610099575b600080fd5b34801561005057600080fd5b5061005a60015481565b6040519081526020015b60405180910390f35b6100756100a1565b005b34801561008357600080fd5b5061008c6101bd565b6040516100649190610377565b61007561023f565b6000546001600160a01b031633146100ec5760405162461bcd60e51b81526020600482015260096024820152683737ba1037bbb732b960b91b60448201526064015b60405180910390fd5b478061012f5760405162461bcd60e51b81526020600482015260126024820152710c4c2d8c2dcc6ca40dcdee840cadcdeeaced60731b60448201526064016100e3565b604051600090339083908381818185875af1925050503d8060008114610171576040519150601f19603f3d011682016040523d82523d6000602084013e610176565b606091505b50509050806101b95760405162461bcd60e51b815260206004820152600f60248201526e1d1c985b9cd9995c8819985b1a5959608a1b60448201526064016100e3565b5050565b60606003805480602002602001604051908101604052809291908181526020016000905b828210156102365760008481526020908190206040805160608101825260038602909201805483526001808201546001600160a01b0316848601526002909101549183019190915290835290920191016101e1565b50505050905090565b600034116102825760405162461bcd60e51b815260206004820152601060248201526f0ecc2d8eaca40dcdee840cadcdeeaced60831b60448201526064016100e3565b60028054906000610292836103ef565b90915550506040805160608101825260025481523360208201908152349282018381526003805460018082018355600083815286517fc2575a0e9e593c00f959f8c92f12db2869c3395a3b0502d05e2516446f71f85b939094029283019390935593517fc2575a0e9e593c00f959f8c92f12db2869c3395a3b0502d05e2516446f71f85c820180546001600160a01b0319166001600160a01b0390921691909117905591517fc2575a0e9e593c00f959f8c92f12db2869c3395a3b0502d05e2516446f71f85d90920191909155815492939261036f908490610408565b909155505050565b602080825282518282018190526000919060409081850190868401855b828110156103cc57815180518552868101516001600160a01b0316878601528501518585015260609093019290850190600101610394565b5091979650505050505050565b634e487b7160e01b600052601160045260246000fd5b600060018201610401576104016103d9565b5060010190565b8082018082111561041b5761041b6103d9565b9291505056fea2646970667358221220299366bbcafc1b5aea975a0943d93aec13d0cc5354a761ca3498423c2447635d64736f6c63430008110033",
  "linkReferences": {},
  "deployedLinkReferences": {}
}